:020000040800F2
:1000000000800120E90500083906000839060008CB
:10001000390600083906000839060008000000000B
:100020000000000000000000000000003906000889
:100030000000000000000000390600082D0500083F
:100040003906000839060008390600083906000894
:100050003906000839060008390600083906000884
:100060003906000839060008390600083906000874
:100070003906000839060008390600083906000864
:100080003906000839060008390600083906000854
:100090003906000839060008390600083906000844
:1000A0003906000839060008390600083906000834
:1000B0003906000839060008390600083906000824
:1000C0003906000839060008390600083906000814
:1000D00039060008390600084905000839060008F5
:1000E0009904000839060008390600083906000896
:1000F00039060008390600083906000839060008E4
:1001000039060008390600083906000839060008D3
:1001100039060008390600083906000839060008C3
:1001200039060008390600083906000839060008B3
:1001300039060008390600083906000839060008A3
:100140003906000839060008390600083906000893
:100150003906000839060008390600083906000883
:100160003906000839060008390600083906000873
:1001700039060008390600083906000800000000AA
:0C0180003906000839060008390600089E
:10018C0010B5054C237833B9044B13B10448AFF3C5
:10019C0000800123237010BD04000020000000002B
:1001AC003C06000808B5034B1BB103490348AFF3E9
:1001BC00008008BD00000000080000203C0600087C
:1001CC0070B50D4D0D4C641BA4100026A64209D130
:1001DC000B4D0C4C00F02CFA641BA4100026A6420C
:1001EC0005D170BD55F8043B98470136EEE755F83C
:1001FC00043B98470136F2E7540600085406000801
:10020C00540600085C06000870477047024B13B197
:10021C00024800F005B870470000000039020008E1
:10022C00002301461A46184600F014B838B5074D9D
:10023C00074C641BA4101CB9BDE8384000F0FEB993
:10024C00013C55F824309847F5E700BF5C060008E0
:10025C00600600082DE9F047DFF874A00646DAF8CE
:10026C00000098460F469146FFF7CEFF164B1C68D0
:10027C000CB9164C1C606568DAF800001F2D05DD02
:10028C00FFF7C3FF4FF0FF30BDE8F0879EB104EBE2
:10029C0085010122C1F88890D4F88831AA40134313
:1002AC00C4F88831022EC1F8088102BFD4F88C3111
:1002BC001343C4F88C316B1C0235636044F8257011
:1002CC00FFF7A3FF0020DFE7240000202800002018
:1002DC000000002000B587B000F0F8F8052100916F
:1002EC0007230622042000F043F800230393049311
:1002FC00059316E0052000F0C1F8002000F000F98D
:10030C0015E0042000F0DAF8A8B1062103A800F0EB
:10031C0041F910E0012000F0E3F8014603A800F0D9
:10032C0045F9002000F0DCF8B0F5FA7FE2D29DF838
:10033C001430002BE5D09DF81430002BEAD10520A9
:10034C0000F0BCF80028E5D0072103A800F022F942
:10035C00E0E7036849004FF0030C0CFA01FC23EAB8
:10036C000C03036003688A4013430360704700006A
:10037C002DE9F84304460D4690461F463C4EF36C5F
:10038C0043F00503F364DFF8F09000220146484681
:10039C00FFF7DFFF002229464846FFF7DAFF01226C
:1003AC0041464FF09040FFF7D4FF012239464FF001
:1003BC009040FFF7CEFF01229DF820104FF09040A7
:1003CC00FFF7C7FF336E43F001033366A208294BD6
:1003DC00023253F8220004F0030189004FF00F0C95
:1003EC000CFA01F620EA060043F8220053F82260CA
:1003FC00022000FA01F1314343F8221025FA00F2F1
:10040C00024453F8226005F0030181400CFA01FC10
:10041C0026EA0C0643F8226053F8226088403043E9
:10042C0043F8220003F58063D968012202FA04F430
:10043C002143D960D86802FA05F10843D8609A685C
:10044C0022EA04029A609A6822EA01029A601A6807
:10045C0014431C601A68114319604FF0E022D2F863
:10046C00043143F48073C2F80431BDE8F88300BF53
:10047C000010024000000140000400484FF0904181
:10048C004B690122824053404B6170470A2301E0C3
:10049C000133DBB20F2B0BD8064A516901229A406B
:1004AC001142F5D003494A61034A0121D154EFE7C7
:1004BC00704700BF00040140B80100200346024A07
:1004CC00105C0021D1547047B80100204FF0E0239C
:1004DC0004221A6140F69F725A6107221A61704712
:1004EC0018B1012804D000207047034B18687047DE
:1004FC00024B1868704700BFCC010020C8010020D7
:10050C0010B1012804D07047034B00221A607047C9
:10051C00024B00221A607047CC010020C801002059
:10052C00044A136801331360034A136801331360E0
:10053C00704700BFCC010020C8010020104BDB69C4
:10054C0013F0200F12D00E4B1A6A42F020021A62DE
:10055C00586A0C4A13780C490968C854137801334B
:10056C00DBB21370094A1278934200D07047044AE8
:10057C00136823F020031360054B01221A70F5E772
:10058C0000440040D1010020D4010020D201002001
:10059C00D001002010B504460170002343700120E7
:1005AC00FFF79EFF60600123237210BD38B5037AFC
:1005BC0033B104460D464368CB1AB3F5FA7F00D22B
:1005CC0038BD0078FFF75AFF656063780133DBB202
:1005DC006370052BF4D900232372F1E70D4885468F
:1005EC00AFF300800C480D490D4A002302E0D458AB
:1005FC00C4500433C4188C42F9D30A4A0A4C002361
:10060C0001E013600432A242FBD3FFF7D9FDFFF7E0
:10061C0061FEFEE7008001200000002004000020A5
:10062C006006000804000020D8010020FEE700004E
:10063C00F8B500BFF8BC08BC9E467047F8B500BFC3
:08064C00F8BC08BC9E46704793
:0806540019020008B1010008C1
:04065C008D01000804
:040660002000002056
:04000005080005E901
:00000001FF
